{
  "_format": "hh-sol-artifact-1",
  "contractName": "VotingCore",
  "sourceName": "contracts/VotingCore.sol",
  "abi": [
    {
      "inputs": [],
      "stateMutability": "nonpayable",
      "type": "constructor"
    },
    {
      "inputs": [
        {
          "internalType": "address",
          "name": "owner",
          "type": "address"
        }
      ],
      "name": "OwnableInvalidOwner",
      "type": "error"
    },
    {
      "inputs": [
        {
          "internalType": "address",
          "name": "account",
          "type": "address"
        }
      ],
      "name": "OwnableUnauthorizedAccount",
      "type": "error"
    },
    {
      "inputs": [],
      "name": "ReentrancyGuardReentrantCall",
      "type": "error"
    },
    {
      "anonymous": false,
      "inputs": [
        {
          "indexed": true,
          "internalType": "uint256",
          "name": "electionId",
          "type": "uint256"
        },
        {
          "indexed": false,
          "internalType": "string",
          "name": "title",
          "type": "string"
        }
      ],
      "name": "ElectionCreated",
      "type": "event"
    },
    {
      "anonymous": false,
      "inputs": [
        {
          "indexed": true,
          "internalType": "uint256",
          "name": "electionId",
          "type": "uint256"
        }
      ],
      "name": "ElectionEnded",
      "type": "event"
    },
    {
      "anonymous": false,
      "inputs": [
        {
          "indexed": true,
          "internalType": "address",
          "name": "previousOwner",
          "type": "address"
        },
        {
          "indexed": true,
          "internalType": "address",
          "name": "newOwner",
          "type": "address"
        }
      ],
      "name": "OwnershipTransferred",
      "type": "event"
    },
    {
      "anonymous": false,
      "inputs": [
        {
          "indexed": true,
          "internalType": "uint256",
          "name": "electionId",
          "type": "uint256"
        },
        {
          "indexed": true,
          "internalType": "uint256",
          "name": "candidateId",
          "type": "uint256"
        },
        {
          "indexed": true,
          "internalType": "address",
          "name": "voter",
          "type": "address"
        }
      ],
      "name": "VoteCast",
      "type": "event"
    },
    {
      "inputs": [
        {
          "internalType": "uint256",
          "name": "_electionId",
          "type": "uint256"
        },
        {
          "internalType": "string",
          "name": "_name",
          "type": "string"
        },
        {
          "internalType": "string",
          "name": "_ipfsImageHash",
          "type": "string"
        }
      ],
      "name": "addCandidate",
      "outputs": [],
      "stateMutability": "nonpayable",
      "type": "function"
    },
    {
      "inputs": [
        {
          "internalType": "uint256",
          "name": "",
          "type": "uint256"
        },
        {
          "internalType": "uint256",
          "name": "",
          "type": "uint256"
        }
      ],
      "name": "candidates",
      "outputs": [
        {
          "internalType": "uint256",
          "name": "id",
          "type": "uint256"
        },
        {
          "internalType": "string",
          "name": "name",
          "type": "string"
        },
        {
          "internalType": "uint256",
          "name": "voteCount",
          "type": "uint256"
        },
        {
          "internalType": "string",
          "name": "ipfsImageHash",
          "type": "string"
        }
      ],
      "stateMutability": "view",
      "type": "function"
    },
    {
      "inputs": [
        {
          "internalType": "uint256",
          "name": "_electionId",
          "type": "uint256"
        },
        {
          "internalType": "uint256",
          "name": "_candidateId",
          "type": "uint256"
        }
      ],
      "name": "castVote",
      "outputs": [],
      "stateMutability": "nonpayable",
      "type": "function"
    },
    {
      "inputs": [
        {
          "internalType": "string",
          "name": "_title",
          "type": "string"
        },
        {
          "internalType": "string",
          "name": "_description",
          "type": "string"
        },
        {
          "internalType": "uint256",
          "name": "_startTime",
          "type": "uint256"
        },
        {
          "internalType": "uint256",
          "name": "_endTime",
          "type": "uint256"
        },
        {
          "internalType": "string",
          "name": "_ipfsHash",
          "type": "string"
        }
      ],
      "name": "createElection",
      "outputs": [],
      "stateMutability": "nonpayable",
      "type": "function"
    },
    {
      "inputs": [],
      "name": "electionCount",
      "outputs": [
        {
          "internalType": "uint256",
          "name": "",
          "type": "uint256"
        }
      ],
      "stateMutability": "view",
      "type": "function"
    },
    {
      "inputs": [
        {
          "internalType": "uint256",
          "name": "",
          "type": "uint256"
        }
      ],
      "name": "elections",
      "outputs": [
        {
          "internalType": "uint256",
          "name": "id",
          "type": "uint256"
        },
        {
          "internalType": "string",
          "name": "title",
          "type": "string"
        },
        {
          "internalType": "string",
          "name": "description",
          "type": "string"
        },
        {
          "internalType": "uint256",
          "name": "startTime",
          "type": "uint256"
        },
        {
          "internalType": "uint256",
          "name": "endTime",
          "type": "uint256"
        },
        {
          "internalType": "bool",
          "name": "isActive",
          "type": "bool"
        },
        {
          "internalType": "uint256",
          "name": "candidateCount",
          "type": "uint256"
        },
        {
          "internalType": "string",
          "name": "ipfsMetadataHash",
          "type": "string"
        }
      ],
      "stateMutability": "view",
      "type": "function"
    },
    {
      "inputs": [
        {
          "internalType": "uint256",
          "name": "_electionId",
          "type": "uint256"
        }
      ],
      "name": "endElection",
      "outputs": [],
      "stateMutability": "nonpayable",
      "type": "function"
    },
    {
      "inputs": [
        {
          "internalType": "uint256",
          "name": "_electionId",
          "type": "uint256"
        }
      ],
      "name": "getElection",
      "outputs": [
        {
          "components": [
            {
              "internalType": "uint256",
              "name": "id",
              "type": "uint256"
            },
            {
              "internalType": "string",
              "name": "title",
              "type": "string"
            },
            {
              "internalType": "string",
              "name": "description",
              "type": "string"
            },
            {
              "internalType": "uint256",
              "name": "startTime",
              "type": "uint256"
            },
            {
              "internalType": "uint256",
              "name": "endTime",
              "type": "uint256"
            },
            {
              "internalType": "bool",
              "name": "isActive",
              "type": "bool"
            },
            {
              "internalType": "uint256",
              "name": "candidateCount",
              "type": "uint256"
            },
            {
              "internalType": "string",
              "name": "ipfsMetadataHash",
              "type": "string"
            }
          ],
          "internalType": "struct VotingCore.Election",
          "name": "",
          "type": "tuple"
        }
      ],
      "stateMutability": "view",
      "type": "function"
    },
    {
      "inputs": [
        {
          "internalType": "uint256",
          "name": "_electionId",
          "type": "uint256"
        }
      ],
      "name": "getResults",
      "outputs": [
        {
          "internalType": "string[]",
          "name": "names",
          "type": "string[]"
        },
        {
          "internalType": "uint256[]",
          "name": "voteCounts",
          "type": "uint256[]"
        }
      ],
      "stateMutability": "view",
      "type": "function"
    },
    {
      "inputs": [
        {
          "internalType": "uint256",
          "name": "_electionId",
          "type": "uint256"
        },
        {
          "internalType": "address",
          "name": "_voter",
          "type": "address"
        }
      ],
      "name": "isEligibleToVote",
      "outputs": [
        {
          "internalType": "bool",
          "name": "",
          "type": "bool"
        }
      ],
      "stateMutability": "view",
      "type": "function"
    },
    {
      "inputs": [],
      "name": "owner",
      "outputs": [
        {
          "internalType": "address",
          "name": "",
          "type": "address"
        }
      ],
      "stateMutability": "view",
      "type": "function"
    },
    {
      "inputs": [],
      "name": "renounceOwnership",
      "outputs": [],
      "stateMutability": "nonpayable",
      "type": "function"
    },
    {
      "inputs": [
        {
          "internalType": "address",
          "name": "newOwner",
          "type": "address"
        }
      ],
      "name": "transferOwnership",
      "outputs": [],
      "stateMutability": "nonpayable",
      "type": "function"
    },
    {
      "inputs": [
        {
          "internalType": "uint256",
          "name": "",
          "type": "uint256"
        },
        {
          "internalType": "address",
          "name": "",
          "type": "address"
        }
      ],
      "name": "voters",
      "outputs": [
        {
          "internalType": "bool",
          "name": "hasVoted",
          "type": "bool"
        },
        {
          "internalType": "uint256",
          "name": "votedCandidateId",
          "type": "uint256"
        },
        {
          "internalType": "uint256",
          "name": "votedElectionId",
          "type": "uint256"
        }
      ],
      "stateMutability": "view",
      "type": "function"
    }
  ],
  "bytecode": "0x60806040523480156200001157600080fd5b5033600073ffffffffffffffffffffffffffffffffffffffff168173ffffffffffffffffffffffffffffffffffffffff1603620000885760006040517f1e4fbdf70000000000000000000000000000000000000000000000000000000081526004016200007f919062000207565b60405180910390fd5b6200009981620000c960201b60201c565b506001620000bc620000b06200018d60201b60201c565b620001b860201b60201c565b6000018190555062000224565b60008060009054906101000a900473ffffffffffffffffffffffffffffffffffffffff169050816000806101000a81548173ffffffffffffffffffffffffffffffffffffffff021916908373ffffffffffffffffffffffffffffffffffffffff1602179055508173ffffffffffffffffffffffffffffffffffffffff168173ffffffffffffffffffffffffffffffffffffffff167f8be0079c531659141344cd1fd0a4f28419497f9722a3daafe3b4186f6b6457e060405160405180910390a35050565b60007f9b779b17422d0df92223018b32b4d1fa46e071723d6817e2486d003becc55f0060001b905090565b6000819050919050565b600073ffffffffffffffffffffffffffffffffffffffff82169050919050565b6000620001ef82620001c2565b9050919050565b6200020181620001e2565b82525050565b60006020820190506200021e6000830184620001f6565b92915050565b6126c680620002346000396000f3fe608060405234801561001057600080fd5b50600436106100ea5760003560e01c8063997d28301161008c5780639d710777116100665780639d710777146102545780639e31906314610284578063e6c62efc146102b6578063f2fde38b146102d2576100ea565b8063997d2830146101ea5780639ae17cea146102085780639c98bcbb14610238576100ea565b80637de14242116100c85780637de142421461014c57806381a60c0d1461017f5780638da5cb5b146101b057806393b3ea45146101ce576100ea565b80632c0a3f89146100ef5780635e6fef011461010b578063715018a614610142575b600080fd5b61010960048036038101906101049190611642565b6102ee565b005b61012560048036038101906101209190611682565b610614565b604051610139989796959493929190611769565b60405180910390f35b61014a610801565b005b61016660048036038101906101619190611642565b610815565b60405161017694939291906117fc565b60405180910390f35b61019960048036038101906101949190611682565b610962565b6040516101a7929190611a19565b60405180910390f35b6101b8610baa565b6040516101c59190611a91565b60405180910390f35b6101e860048036038101906101e39190611be1565b610bd3565b005b6101f2610d9a565b6040516101ff9190611cb0565b60405180910390f35b610222600480360381019061021d9190611cf7565b610da0565b60405161022f9190611d37565b60405180910390f35b610252600480360381019061024d9190611682565b610e0c565b005b61026e60048036038101906102699190611682565b610ec4565b60405161027b9190611e1f565b60405180910390f35b61029e60048036038101906102999190611cf7565b61113c565b6040516102ad93929190611e41565b60405180910390f35b6102d060048036038101906102cb9190611e78565b611180565b005b6102ec60048036038101906102e79190611f03565b611306565b005b6102f661138c565b60006002600084815260200190815260200160002090508060050160009054906101000a900460ff1661035e576040517f08c379a000000000000000000000000000000000000000000000000000000000815260040161035590611f7c565b60405180910390fd5b80600301544210156103a5576040517f08c379a000000000000000000000000000000000000000000000000000000000815260040161039c90611fe8565b60405180910390fd5b80600401544211156103ec576040517f08c379a00000000000000000000000000000000000000000000000000000000081526004016103e390612054565b60405180910390fd5b6004600084815260200190815260200160002060003373ffffffffffffffffffffffffffffffffffffffff1673ffffffffffffffffffffffffffffffffffffffff16815260200190815260200160002060000160009054906101000a900460ff161561048d576040517f08c379a0000000000000000000000000000000000000000000000000000000008152600401610484906120c0565b60405180910390fd5b6000821180156104a1575080600601548211155b6104e0576040517f08c379a00000000000000000000000000000000000000000000000000000000081526004016104d79061212c565b60405180910390fd5b6040518060600160405280600115158152602001838152602001848152506004600085815260200190815260200160002060003373ffffffffffffffffffffffffffffffffffffffff1673ffffffffffffffffffffffffffffffffffffffff16815260200190815260200160002060008201518160000160006101000a81548160ff021916908315150217905550602082015181600101556040820151816002015590505060036000848152602001908152602001600020600083815260200190815260200160002060020160008154809291906105bd9061217b565b91905055503373ffffffffffffffffffffffffffffffffffffffff1682847f7fe1d4e6b34e228b5dc059fcdc037c71b216fb2417f47c171e505144a5e4f5fc60405160405180910390a4506106106113af565b5050565b600260205280600052604060002060009150905080600001549080600101805461063d906121f2565b80601f0160208091040260200160405190810160405280929190818152602001828054610669906121f2565b80156106b65780601f1061068b576101008083540402835291602001916106b6565b820191906000526020600020905b81548152906001019060200180831161069957829003601f168201915b5050505050908060020180546106cb906121f2565b80601f01602080910402602001604051908101604052809291908181526020018280546106f7906121f2565b80156107445780601f1061071957610100808354040283529160200191610744565b820191906000526020600020905b81548152906001019060200180831161072757829003601f168201915b5050505050908060030154908060040154908060050160009054906101000a900460ff169080600601549080600701805461077e906121f2565b80601f01602080910402602001604051908101604052809291908181526020018280546107aa906121f2565b80156107f75780601f106107cc576101008083540402835291602001916107f7565b820191906000526020600020905b8154815290600101906020018083116107da57829003601f168201915b5050505050905088565b6108096113ca565b6108136000611451565b565b60036020528160005260406000206020528060005260406000206000915091505080600001549080600101805461084b906121f2565b80601f0160208091040260200160405190810160405280929190818152602001828054610877906121f2565b80156108c45780601f10610899576101008083540402835291602001916108c4565b820191906000526020600020905b8154815290600101906020018083116108a757829003601f168201915b5050505050908060020154908060030180546108df906121f2565b80601f016020809104026020016040519081016040528092919081815260200182805461090b906121f2565b80156109585780601f1061092d57610100808354040283529160200191610958565b820191906000526020600020905b81548152906001019060200180831161093b57829003601f168201915b5050505050905084565b60608060008311801561097757506001548311155b6109b6576040517f08c379a00000000000000000000000000000000000000000000000000000000081526004016109ad9061226f565b60405180910390fd5b60006002600085815260200190815260200160002090506000816006015490508067ffffffffffffffff8111156109f0576109ef611ab6565b5b604051908082528060200260200182016040528015610a2357816020015b6060815260200190600190039081610a0e5790505b5093508067ffffffffffffffff811115610a4057610a3f611ab6565b5b604051908082528060200260200182016040528015610a6e5781602001602082028036833780820191505090505b5092506000600190505b818111610ba25760006003600088815260200190815260200160002060008381526020019081526020016000209050806001018054610ab6906121f2565b80601f0160208091040260200160405190810160405280929190818152602001828054610ae2906121f2565b8015610b2f5780601f10610b0457610100808354040283529160200191610b2f565b820191906000526020600020905b815481529060010190602001808311610b1257829003601f168201915b505050505086600184610b42919061228f565b81518110610b5357610b526122c3565b5b6020026020010181905250806002015485600184610b71919061228f565b81518110610b8257610b816122c3565b5b602002602001018181525050508080610b9a9061217b565b915050610a78565b505050915091565b60008060009054906101000a900473ffffffffffffffffffffffffffffffffffffffff16905090565b610bdb6113ca565b818310610c1d576040517f08c379a0000000000000000000000000000000000000000000000000000000008152600401610c1490612364565b60405180910390fd5b428211610c5f576040517f08c379a0000000000000000000000000000000000000000000000000000000008152600401610c56906123d0565b60405180910390fd5b60016000815480929190610c729061217b565b919050555060405180610100016040528060015481526020018681526020018581526020018481526020018381526020016001151581526020016000815260200182815250600260006001548152602001908152602001600020600082015181600001556020820151816001019081610ceb919061259c565b506040820151816002019081610d01919061259c565b50606082015181600301556080820151816004015560a08201518160050160006101000a81548160ff02191690831515021790555060c0820151816006015560e0820151816007019081610d55919061259c565b509050506001547f52be7c4e77b4de76b7607d621492061fe13b58597e72dfb5e51ab8f6187ed14186604051610d8b919061266e565b60405180910390a25050505050565b60015481565b60006004600084815260200190815260200160002060008373ffffffffffffffffffffffffffffffffffffffff1673ffffffffffffffffffffffffffffffffffffffff16815260200190815260200160002060000160009054906101000a900460ff1615905092915050565b610e146113ca565b600081118015610e2657506001548111155b610e65576040517f08c379a0000000000000000000000000000000000000000000000000000000008152600401610e5c9061226f565b60405180910390fd5b60006002600083815260200190815260200160002060050160006101000a81548160ff021916908315150217905550807f562cd572b2ba3b666cd989fc4ca98419ec81e75f04528df9d9d76fdb7807ee7160405160405180910390a250565b610ecc6115b1565b600082118015610ede57506001548211155b610f1d576040517f08c379a0000000000000000000000000000000000000000000000000000000008152600401610f149061226f565b60405180910390fd5b600260008381526020019081526020016000206040518061010001604052908160008201548152602001600182018054610f56906121f2565b80601f0160208091040260200160405190810160405280929190818152602001828054610f82906121f2565b8015610fcf5780601f10610fa457610100808354040283529160200191610fcf565b820191906000526020600020905b815481529060010190602001808311610fb257829003601f168201915b50505050508152602001600282018054610fe8906121f2565b80601f0160208091040260200160405190810160405280929190818152602001828054611014906121f2565b80156110615780601f1061103657610100808354040283529160200191611061565b820191906000526020600020905b81548152906001019060200180831161104457829003601f168201915b5050505050815260200160038201548152602001600482015481526020016005820160009054906101000a900460ff16151515158152602001600682015481526020016007820180546110b3906121f2565b80601f01602080910402602001604051908101604052809291908181526020018280546110df906121f2565b801561112c5780601f106111015761010080835404028352916020019161112c565b820191906000526020600020905b81548152906001019060200180831161110f57829003601f168201915b5050505050815250509050919050565b6004602052816000526040600020602052806000526040600020600091509150508060000160009054906101000a900460ff16908060010154908060020154905083565b6111886113ca565b60008311801561119a57506001548311155b6111d9576040517f08c379a00000000000000000000000000000000000000000000000000000000081526004016111d09061226f565b60405180910390fd5b6002600084815260200190815260200160002060050160009054906101000a900460ff1661123c576040517f08c379a000000000000000000000000000000000000000000000000000000000815260040161123390611f7c565b60405180910390fd5b60006002600085815260200190815260200160002090508060060160008154809291906112689061217b565b9190505550600081600601549050604051806080016040528082815260200185815260200160008152602001848152506003600087815260200190815260200160002060008381526020019081526020016000206000820151816000015560208201518160010190816112db919061259c565b506040820151816002015560608201518160030190816112fb919061259c565b509050505050505050565b61130e6113ca565b600073ffffffffffffffffffffffffffffffffffffffff168173ffffffffffffffffffffffffffffffffffffffff16036113805760006040517f1e4fbdf70000000000000000000000000000000000000000000000000000000081526004016113779190611a91565b60405180910390fd5b61138981611451565b50565b611394611515565b60026113a66113a1611556565b611581565b60000181905550565b60016113c16113bc611556565b611581565b60000181905550565b6113d261158b565b73ffffffffffffffffffffffffffffffffffffffff166113f0610baa565b73ffffffffffffffffffffffffffffffffffffffff161461144f5761141361158b565b6040517f118cdaa70000000000000000000000000000000000000000000000000000000081526004016114469190611a91565b60405180910390fd5b565b60008060009054906101000a900473ffffffffffffffffffffffffffffffffffffffff169050816000806101000a81548173ffffffffffffffffffffffffffffffffffffffff021916908373ffffffffffffffffffffffffffffffffffffffff1602179055508173ffffffffffffffffffffffffffffffffffffffff168173ffffffffffffffffffffffffffffffffffffffff167f8be0079c531659141344cd1fd0a4f28419497f9722a3daafe3b4186f6b6457e060405160405180910390a35050565b61151d611593565b15611554576040517f3ee5aeb500000000000000000000000000000000000000000000000000000000815260040160405180910390fd5b565b60007f9b779b17422d0df92223018b32b4d1fa46e071723d6817e2486d003becc55f0060001b905090565b6000819050919050565b600033905090565b600060026115a76115a2611556565b611581565b6000015414905090565b604051806101000160405280600081526020016060815260200160608152602001600081526020016000815260200160001515815260200160008152602001606081525090565b6000604051905090565b600080fd5b600080fd5b6000819050919050565b61161f8161160c565b811461162a57600080fd5b50565b60008135905061163c81611616565b92915050565b6000806040838503121561165957611658611602565b5b60006116678582860161162d565b92505060206116788582860161162d565b9150509250929050565b60006020828403121561169857611697611602565b5b60006116a68482850161162d565b91505092915050565b6116b88161160c565b82525050565b600081519050919050565b600082825260208201905092915050565b60005b838110156116f85780820151818401526020810190506116dd565b60008484015250505050565b6000601f19601f8301169050919050565b6000611720826116be565b61172a81856116c9565b935061173a8185602086016116da565b61174381611704565b840191505092915050565b60008115159050919050565b6117638161174e565b82525050565b60006101008201905061177f600083018b6116af565b8181036020830152611791818a611715565b905081810360408301526117a58189611715565b90506117b460608301886116af565b6117c160808301876116af565b6117ce60a083018661175a565b6117db60c08301856116af565b81810360e08301526117ed8184611715565b90509998505050505050505050565b600060808201905061181160008301876116af565b81810360208301526118238186611715565b905061183260408301856116af565b81810360608301526118448184611715565b905095945050505050565b600081519050919050565b600082825260208201905092915050565b6000819050602082019050919050565b600082825260208201905092915050565b6000611897826116be565b6118a1818561187b565b93506118b18185602086016116da565b6118ba81611704565b840191505092915050565b60006118d1838361188c565b905092915050565b6000602082019050919050565b60006118f18261184f565b6118fb818561185a565b93508360208202850161190d8561186b565b8060005b85811015611949578484038952815161192a85826118c5565b9450611935836118d9565b925060208a01995050600181019050611911565b50829750879550505050505092915050565b600081519050919050565b600082825260208201905092915050565b6000819050602082019050919050565b6119908161160c565b82525050565b60006119a28383611987565b60208301905092915050565b6000602082019050919050565b60006119c68261195b565b6119d08185611966565b93506119db83611977565b8060005b83811015611a0c5781516119f38882611996565b97506119fe836119ae565b9250506001810190506119df565b5085935050505092915050565b60006040820190508181036000830152611a3381856118e6565b90508181036020830152611a4781846119bb565b90509392505050565b600073ffffffffffffffffffffffffffffffffffffffff82169050919050565b6000611a7b82611a50565b9050919050565b611a8b81611a70565b82525050565b6000602082019050611aa66000830184611a82565b92915050565b600080fd5b600080fd5b7f4e487b7100000000000000000000000000000000000000000000000000000000600052604160045260246000fd5b611aee82611704565b810181811067ffffffffffffffff82111715611b0d57611b0c611ab6565b5b80604052505050565b6000611b206115f8565b9050611b2c8282611ae5565b919050565b600067ffffffffffffffff821115611b4c57611b4b611ab6565b5b611b5582611704565b9050602081019050919050565b82818337600083830152505050565b6000611b84611b7f84611b31565b611b16565b905082815260208101848484011115611ba057611b9f611ab1565b5b611bab848285611b62565b509392505050565b600082601f830112611bc857611bc7611aac565b5b8135611bd8848260208601611b71565b91505092915050565b600080600080600060a08688031215611bfd57611bfc611602565b5b600086013567ffffffffffffffff811115611c1b57611c1a611607565b5b611c2788828901611bb3565b955050602086013567ffffffffffffffff811115611c4857611c47611607565b5b611c5488828901611bb3565b9450506040611c658882890161162d565b9350506060611c768882890161162d565b925050608086013567ffffffffffffffff811115611c9757611c96611607565b5b611ca388828901611bb3565b9150509295509295909350565b6000602082019050611cc560008301846116af565b92915050565b611cd481611a70565b8114611cdf57600080fd5b50565b600081359050611cf181611ccb565b92915050565b60008060408385031215611d0e57611d0d611602565b5b6000611d1c8582860161162d565b9250506020611d2d85828601611ce2565b9150509250929050565b6000602082019050611d4c600083018461175a565b92915050565b611d5b8161174e565b82525050565b600061010083016000830151611d7a6000860182611987565b5060208301518482036020860152611d92828261188c565b91505060408301518482036040860152611dac828261188c565b9150506060830151611dc16060860182611987565b506080830151611dd46080860182611987565b5060a0830151611de760a0860182611d52565b5060c0830151611dfa60c0860182611987565b5060e083015184820360e0860152611e12828261188c565b9150508091505092915050565b60006020820190508181036000830152611e398184611d61565b905092915050565b6000606082019050611e56600083018661175a565b611e6360208301856116af565b611e7060408301846116af565b949350505050565b600080600060608486031215611e9157611e90611602565b5b6000611e9f8682870161162d565b935050602084013567ffffffffffffffff811115611ec057611ebf611607565b5b611ecc86828701611bb3565b925050604084013567ffffffffffffffff811115611eed57611eec611607565b5b611ef986828701611bb3565b9150509250925092565b600060208284031215611f1957611f18611602565b5b6000611f2784828501611ce2565b91505092915050565b7f456c656374696f6e206973206e6f742061637469766500000000000000000000600082015250565b6000611f666016836116c9565b9150611f7182611f30565b602082019050919050565b60006020820190508181036000830152611f9581611f59565b9050919050565b7f456c656374696f6e20686173206e6f7420737461727465640000000000000000600082015250565b6000611fd26018836116c9565b9150611fdd82611f9c565b602082019050919050565b6000602082019050818103600083015261200181611fc5565b9050919050565b7f456c656374696f6e2068617320656e6465640000000000000000000000000000600082015250565b600061203e6012836116c9565b915061204982612008565b602082019050919050565b6000602082019050818103600083015261206d81612031565b9050919050565b7f416c726561647920766f74656420696e207468697320656c656374696f6e0000600082015250565b60006120aa601e836116c9565b91506120b582612074565b602082019050919050565b600060208201905081810360008301526120d98161209d565b9050919050565b7f496e76616c69642063616e646964617465204944000000000000000000000000600082015250565b60006121166014836116c9565b9150612121826120e0565b602082019050919050565b6000602082019050818103600083015261214581612109565b9050919050565b7f4e487b7100000000000000000000000000000000000000000000000000000000600052601160045260246000fd5b60006121868261160c565b91507fffffffffffffffffffffffffffffffffffffffffffffffffffffffffffffffff82036121b8576121b761214c565b5b600182019050919050565b7f4e487b7100000000000000000000000000000000000000000000000000000000600052602260045260246000fd5b6000600282049050600182168061220a57607f821691505b60208210810361221d5761221c6121c3565b5b50919050565b7f496e76616c696420656c656374696f6e20494400000000000000000000000000600082015250565b60006122596013836116c9565b915061226482612223565b602082019050919050565b600060208201905081810360008301526122888161224c565b9050919050565b600061229a8261160c565b91506122a58361160c565b92508282039050818111156122bd576122bc61214c565b5b92915050565b7f4e487b7100000000000000000000000000000000000000000000000000000000600052603260045260246000fd5b7f53746172742074696d65206d757374206265206265666f726520656e6420746960008201527f6d65000000000000000000000000000000000000000000000000000000000000602082015250565b600061234e6022836116c9565b9150612359826122f2565b604082019050919050565b6000602082019050818103600083015261237d81612341565b9050919050565b7f456e642074696d65206d75737420626520696e20746865206675747572650000600082015250565b60006123ba601e836116c9565b91506123c582612384565b602082019050919050565b600060208201905081810360008301526123e9816123ad565b9050919050565b60008190508160005260206000209050919050565b60006020601f8301049050919050565b600082821b905092915050565b6000600883026124527fffffffffffffffffffffffffffffffffffffffffffffffffffffffffffffffff82612415565b61245c8683612415565b95508019841693508086168417925050509392505050565b6000819050919050565b600061249961249461248f8461160c565b612474565b61160c565b9050919050565b6000819050919050565b6124b38361247e565b6124c76124bf826124a0565b848454612422565b825550505050565b600090565b6124dc6124cf565b6124e78184846124aa565b505050565b5b8181101561250b576125006000826124d4565b6001810190506124ed565b5050565b601f82111561255057612521816123f0565b61252a84612405565b81016020851015612539578190505b61254d61254585612405565b8301826124ec565b50505b505050565b600082821c905092915050565b600061257360001984600802612555565b1980831691505092915050565b600061258c8383612562565b9150826002028217905092915050565b6125a5826116be565b67ffffffffffffffff8111156125be576125bd611ab6565b5b6125c882546121f2565b6125d382828561250f565b600060209050601f83116001811461260657600084156125f4578287015190505b6125fe8582612580565b865550612666565b601f198416612614866123f0565b60005b8281101561263c57848901518255600182019150602085019450602081019050612617565b868310156126595784890151612655601f891682612562565b8355505b6001600288020188555050505b505050505050565b600060208201905081810360008301526126888184611715565b90509291505056fea26469706673582212201630673bc13405412cebaee8b09f9d94f026a1b5ab58dfa2c0cda852814e4c3264736f6c63430008140033",
  "linkReferences": {},
  "deployedLinkReferences": {}
}